{
  "_format": "hh-sol-artifact-1",
  "contractName": "EnergyTrading",
  "sourceName": "contracts/EnergyTrading.sol",
  "abi": [
    {
      "inputs": [],
      "stateMutability": "nonpayable",
      "type": "constructor"
    },
    {
      "inputs": [
        {
          "internalType": "address",
          "name": "owner",
          "type": "address"
        }
      ],
      "name": "OwnableInvalidOwner",
      "type": "error"
    },
    {
      "inputs": [
        {
          "internalType": "address",
          "name": "account",
          "type": "address"
        }
      ],
      "name": "OwnableUnauthorizedAccount",
      "type": "error"
    },
    {
      "inputs": [],
      "name": "ReentrancyGuardReentrantCall",
      "type": "error"
    },
    {
      "anonymous": false,
      "inputs": [
        {
          "indexed": true,
          "internalType": "uint256",
          "name": "transactionId",
          "type": "uint256"
        },
        {
          "indexed": true,
          "internalType": "uint256",
          "name": "offerId",
          "type": "uint256"
        },
        {
          "indexed": true,
          "internalType": "address",
          "name": "buyer",
          "type": "address"
        },
        {
          "indexed": false,
          "internalType": "address",
          "name": "seller",
          "type": "address"
        },
        {
          "indexed": false,
          "internalType": "uint256",
          "name": "energyAmount",
          "type": "uint256"
        },
        {
          "indexed": false,
          "internalType": "uint256",
          "name": "totalPrice",
          "type": "uint256"
        }
      ],
      "name": "EnergyPurchased",
      "type": "event"
    },
    {
      "anonymous": false,
      "inputs": [
        {
          "indexed": true,
          "internalType": "uint256",
          "name": "offerId",
          "type": "uint256"
        },
        {
          "indexed": true,
          "internalType": "address",
          "name": "seller",
          "type": "address"
        }
      ],
      "name": "OfferCancelled",
      "type": "event"
    },
    {
      "anonymous": false,
      "inputs": [
        {
          "indexed": true,
          "internalType": "uint256",
          "name": "offerId",
          "type": "uint256"
        },
        {
          "indexed": true,
          "internalType": "address",
          "name": "seller",
          "type": "address"
        },
        {
          "indexed": false,
          "internalType": "uint256",
          "name": "energyAmount",
          "type": "uint256"
        },
        {
          "indexed": false,
          "internalType": "uint256",
          "name": "pricePerKwh",
          "type": "uint256"
        },
        {
          "indexed": false,
          "internalType": "string",
          "name": "energyType",
          "type": "string"
        }
      ],
      "name": "OfferCreated",
      "type": "event"
    },
    {
      "anonymous": false,
      "inputs": [
        {
          "indexed": true,
          "internalType": "address",
          "name": "previousOwner",
          "type": "address"
        },
        {
          "indexed": true,
          "internalType": "address",
          "name": "newOwner",
          "type": "address"
        }
      ],
      "name": "OwnershipTransferred",
      "type": "event"
    },
    {
      "anonymous": false,
      "inputs": [
        {
          "indexed": true,
          "internalType": "address",
          "name": "user",
          "type": "address"
        },
        {
          "indexed": false,
          "internalType": "string",
          "name": "userType",
          "type": "string"
        }
      ],
      "name": "UserRegistered",
      "type": "event"
    },
    {
      "inputs": [
        {
          "internalType": "uint256",
          "name": "_offerId",
          "type": "uint256"
        }
      ],
      "name": "buyEnergy",
      "outputs": [],
      "stateMutability": "payable",
      "type": "function"
    },
    {
      "inputs": [
        {
          "internalType": "uint256",
          "name": "_offerId",
          "type": "uint256"
        }
      ],
      "name": "cancelOffer",
      "outputs": [],
      "stateMutability": "nonpayable",
      "type": "function"
    },
    {
      "inputs": [
        {
          "internalType": "uint256",
          "name": "_energyAmount",
          "type": "uint256"
        },
        {
          "internalType": "uint256",
          "name": "_pricePerKwh",
          "type": "uint256"
        },
        {
          "internalType": "string",
          "name": "_energyType",
          "type": "string"
        },
        {
          "internalType": "string",
          "name": "_location",
          "type": "string"
        }
      ],
      "name": "createOffer",
      "outputs": [],
      "stateMutability": "nonpayable",
      "type": "function"
    },
    {
      "inputs": [],
      "name": "emergencyWithdraw",
      "outputs": [],
      "stateMutability": "nonpayable",
      "type": "function"
    },
    {
      "inputs": [],
      "name": "getActiveOffers",
      "outputs": [
        {
          "components": [
            {
              "internalType": "uint256",
              "name": "id",
              "type": "uint256"
            },
            {
              "internalType": "address",
              "name": "seller",
              "type": "address"
            },
            {
              "internalType": "uint256",
              "name": "energyAmount",
              "type": "uint256"
            },
            {
              "internalType": "uint256",
              "name": "pricePerKwh",
              "type": "uint256"
            },
            {
              "internalType": "string",
              "name": "energyType",
              "type": "string"
            },
            {
              "internalType": "string",
              "name": "location",
              "type": "string"
            },
            {
              "internalType": "bool",
              "name": "isActive",
              "type": "bool"
            },
            {
              "internalType": "uint256",
              "name": "createdAt",
              "type": "uint256"
            }
          ],
          "internalType": "struct EnergyTrading.EnergyOffer[]",
          "name": "",
          "type": "tuple[]"
        }
      ],
      "stateMutability": "view",
      "type": "function"
    },
    {
      "inputs": [
        {
          "internalType": "uint256",
          "name": "_offerId",
          "type": "uint256"
        }
      ],
      "name": "getOffer",
      "outputs": [
        {
          "components": [
            {
              "internalType": "uint256",
              "name": "id",
              "type": "uint256"
            },
            {
              "internalType": "address",
              "name": "seller",
              "type": "address"
            },
            {
              "internalType": "uint256",
              "name": "energyAmount",
              "type": "uint256"
            },
            {
              "internalType": "uint256",
              "name": "pricePerKwh",
              "type": "uint256"
            },
            {
              "internalType": "string",
              "name": "energyType",
              "type": "string"
            },
            {
              "internalType": "string",
              "name": "location",
              "type": "string"
            },
            {
              "internalType": "bool",
              "name": "isActive",
              "type": "bool"
            },
            {
              "internalType": "uint256",
              "name": "createdAt",
              "type": "uint256"
            }
          ],
          "internalType": "struct EnergyTrading.EnergyOffer",
          "name": "",
          "type": "tuple"
        }
      ],
      "stateMutability": "view",
      "type": "function"
    },
    {
      "inputs": [],
      "name": "getTotalOffers",
      "outputs": [
        {
          "internalType": "uint256",
          "name": "",
          "type": "uint256"
        }
      ],
      "stateMutability": "view",
      "type": "function"
    },
    {
      "inputs": [],
      "name": "getTotalTransactions",
      "outputs": [
        {
          "internalType": "uint256",
          "name": "",
          "type": "uint256"
        }
      ],
      "stateMutability": "view",
      "type": "function"
    },
    {
      "inputs": [
        {
          "internalType": "uint256",
          "name": "_transactionId",
          "type": "uint256"
        }
      ],
      "name": "getTransaction",
      "outputs": [
        {
          "components": [
            {
              "internalType": "uint256",
              "name": "id",
              "type": "uint256"
            },
            {
              "internalType": "uint256",
              "name": "offerId",
              "type": "uint256"
            },
            {
              "internalType": "address",
              "name": "buyer",
              "type": "address"
            },
            {
              "internalType": "address",
              "name": "seller",
              "type": "address"
            },
            {
              "internalType": "uint256",
              "name": "energyAmount",
              "type": "uint256"
            },
            {
              "internalType": "uint256",
              "name": "totalPrice",
              "type": "uint256"
            },
            {
              "internalType": "uint256",
              "name": "timestamp",
              "type": "uint256"
            },
            {
              "internalType": "bool",
              "name": "completed",
              "type": "bool"
            }
          ],
          "internalType": "struct EnergyTrading.EnergyTransaction",
          "name": "",
          "type": "tuple"
        }
      ],
      "stateMutability": "view",
      "type": "function"
    },
    {
      "inputs": [
        {
          "internalType": "address",
          "name": "_user",
          "type": "address"
        }
      ],
      "name": "getUserOffers",
      "outputs": [
        {
          "internalType": "uint256[]",
          "name": "",
          "type": "uint256[]"
        }
      ],
      "stateMutability": "view",
      "type": "function"
    },
    {
      "inputs": [
        {
          "internalType": "address",
          "name": "_user",
          "type": "address"
        }
      ],
      "name": "getUserTransactions",
      "outputs": [
        {
          "internalType": "uint256[]",
          "name": "",
          "type": "uint256[]"
        }
      ],
      "stateMutability": "view",
      "type": "function"
    },
    {
      "inputs": [
        {
          "internalType": "address",
          "name": "_user",
          "type": "address"
        }
      ],
      "name": "getUserType",
      "outputs": [
        {
          "internalType": "string",
          "name": "",
          "type": "string"
        }
      ],
      "stateMutability": "view",
      "type": "function"
    },
    {
      "inputs": [
        {
          "internalType": "address",
          "name": "_user",
          "type": "address"
        }
      ],
      "name": "isUserRegistered",
      "outputs": [
        {
          "internalType": "bool",
          "name": "",
          "type": "bool"
        }
      ],
      "stateMutability": "view",
      "type": "function"
    },
    {
      "inputs": [
        {
          "internalType": "uint256",
          "name": "",
          "type": "uint256"
        }
      ],
      "name": "offers",
      "outputs": [
        {
          "internalType": "uint256",
          "name": "id",
          "type": "uint256"
        },
        {
          "internalType": "address",
          "name": "seller",
          "type": "address"
        },
        {
          "internalType": "uint256",
          "name": "energyAmount",
          "type": "uint256"
        },
        {
          "internalType": "uint256",
          "name": "pricePerKwh",
          "type": "uint256"
        },
        {
          "internalType": "string",
          "name": "energyType",
          "type": "string"
        },
        {
          "internalType": "string",
          "name": "location",
          "type": "string"
        },
        {
          "internalType": "bool",
          "name": "isActive",
          "type": "bool"
        },
        {
          "internalType": "uint256",
          "name": "createdAt",
          "type": "uint256"
        }
      ],
      "stateMutability": "view",
      "type": "function"
    },
    {
      "inputs": [],
      "name": "owner",
      "outputs": [
        {
          "internalType": "address",
          "name": "",
          "type": "address"
        }
      ],
      "stateMutability": "view",
      "type": "function"
    },
    {
      "inputs": [
        {
          "internalType": "string",
          "name": "_userType",
          "type": "string"
        }
      ],
      "name": "registerUser",
      "outputs": [],
      "stateMutability": "nonpayable",
      "type": "function"
    },
    {
      "inputs": [
        {
          "internalType": "address",
          "name": "",
          "type": "address"
        }
      ],
      "name": "registeredUsers",
      "outputs": [
        {
          "internalType": "bool",
          "name": "",
          "type": "bool"
        }
      ],
      "stateMutability": "view",
      "type": "function"
    },
    {
      "inputs": [],
      "name": "renounceOwnership",
      "outputs": [],
      "stateMutability": "nonpayable",
      "type": "function"
    },
    {
      "inputs": [
        {
          "internalType": "uint256",
          "name": "",
          "type": "uint256"
        }
      ],
      "name": "transactions",
      "outputs": [
        {
          "internalType": "uint256",
          "name": "id",
          "type": "uint256"
        },
        {
          "internalType": "uint256",
          "name": "offerId",
          "type": "uint256"
        },
        {
          "internalType": "address",
          "name": "buyer",
          "type": "address"
        },
        {
          "internalType": "address",
          "name": "seller",
          "type": "address"
        },
        {
          "internalType": "uint256",
          "name": "energyAmount",
          "type": "uint256"
        },
        {
          "internalType": "uint256",
          "name": "totalPrice",
          "type": "uint256"
        },
        {
          "internalType": "uint256",
          "name": "timestamp",
          "type": "uint256"
        },
        {
          "internalType": "bool",
          "name": "completed",
          "type": "bool"
        }
      ],
      "stateMutability": "view",
      "type": "function"
    },
    {
      "inputs": [
        {
          "internalType": "address",
          "name": "newOwner",
          "type": "address"
        }
      ],
      "name": "transferOwnership",
      "outputs": [],
      "stateMutability": "nonpayable",
      "type": "function"
    },
    {
      "inputs": [
        {
          "internalType": "address",
          "name": "",
          "type": "address"
        },
        {
          "internalType": "uint256",
          "name": "",
          "type": "uint256"
        }
      ],
      "name": "userOffers",
      "outputs": [
        {
          "internalType": "uint256",
          "name": "",
          "type": "uint256"
        }
      ],
      "stateMutability": "view",
      "type": "function"
    },
    {
      "inputs": [
        {
          "internalType": "address",
          "name": "",
          "type": "address"
        },
        {
          "internalType": "uint256",
          "name": "",
          "type": "uint256"
        }
      ],
      "name": "userTransactions",
      "outputs": [
        {
          "internalType": "uint256",
          "name": "",
          "type": "uint256"
        }
      ],
      "stateMutability": "view",
      "type": "function"
    },
    {
      "inputs": [
        {
          "internalType": "address",
          "name": "",
          "type": "address"
        }
      ],
      "name": "userTypes",
      "outputs": [
        {
          "internalType": "string",
          "name": "",
          "type": "string"
        }
      ],
      "stateMutability": "view",
      "type": "function"
    }
  ],
  "bytecode": "0x608060405234801561001057600080fd5b506001600055338061003c57604051631e4fbdf760e01b81526000600482015260240160405180910390fd5b6100458161004b565b5061009d565b600180546001600160a01b038381166001600160a01b0319831681179093556040519116919082907f8be0079c531659141344cd1fd0a4f28419497f9722a3daafe3b4186f6b6457e090600090a35050565b612268806100ac6000396000f3fe6080604052600436106101405760003560e01c80638b3f863f116100b6578063bd5fec651161006f578063bd5fec65146104da578063db2e21bc146104fa578063ef706adf1461050f578063ef9253991461052f578063f2fde38b1461054f578063fbf6c2c71461056f57600080fd5b80638b3f863f146103885780638da5cb5b146103a85780639ace38c2146103d0578063b5c604ff14610488578063b842ec44146104a7578063bc8a251f146104c757600080fd5b8063704f1b9411610108578063704f1b94146102ae578063715018a6146102d05780637ff118ef146102e5578063872f8add1461030757806387cd273c146103275780638a72ea6a1461035457600080fd5b80630e50cee514610145578063163f75221461018a57806333ea3dc8146101c35780634579268a14610254578063661d2c2c14610281575b600080fd5b34801561015157600080fd5b50610175610160366004611b88565b60086020526000908152604090205460ff1681565b60405190151581526020015b60405180910390f35b34801561019657600080fd5b506101756101a5366004611b88565b6001600160a01b031660009081526008602052604090205460ff1690565b3480156101cf57600080fd5b506101e36101de366004611baa565b610584565b60405161018191906000610100820190508251825260208301516020830152604083015160018060a01b03808216604085015280606086015116606085015250506080830151608083015260a083015160a083015260c083015160c083015260e0830151151560e083015292915050565b34801561026057600080fd5b5061027461026f366004611baa565b6106c3565b6040516101819190611c96565b34801561028d57600080fd5b506102a161029c366004611b88565b610892565b6040516101819190611ca9565b3480156102ba57600080fd5b506102ce6102c9366004611d90565b6108fe565b005b3480156102dc57600080fd5b506102ce610ac2565b3480156102f157600080fd5b506102fa610ad6565b6040516101819190611dcd565b34801561031357600080fd5b506102ce610322366004611e2f565b610d78565b34801561033357600080fd5b50610347610342366004611b88565b61106b565b6040516101819190611ea6565b34801561036057600080fd5b5061037461036f366004611baa565b611105565b604051610181989796959493929190611eb9565b34801561039457600080fd5b506103476103a3366004611b88565b611266565b3480156103b457600080fd5b506001546040516001600160a01b039091168152602001610181565b3480156103dc57600080fd5b5061043f6103eb366004611baa565b600560208190526000918252604090912080546001820154600283015460038401546004850154958501546006860154600790960154949693956001600160a01b0393841695929093169392909160ff1688565b6040805198895260208901979097526001600160a01b0395861696880196909652939092166060860152608085015260a084015260c0830152151560e082015261010001610181565b34801561049457600080fd5b506003545b604051908152602001610181565b3480156104b357600080fd5b506104996104c2366004611f19565b611308565b6102ce6104d5366004611baa565b611339565b3480156104e657600080fd5b506104996104f5366004611f19565b6117c0565b34801561050657600080fd5b506102ce6117dc565b34801561051b57600080fd5b506102ce61052a366004611baa565b611863565b34801561053b57600080fd5b506102a161054a366004611b88565b6119cb565b34801561055b57600080fd5b506102ce61056a366004611b88565b611a35565b34801561057b57600080fd5b50600254610499565b6105e0604051806101000160405280600081526020016000815260200160006001600160a01b0316815260200160006001600160a01b031681526020016000815260200160008152602001600081526020016000151581525090565b60035482111580156105f25750600082115b6106435760405162461bcd60e51b815260206004820152601a60248201527f5472616e73616374696f6e20646f6573206e6f7420657869737400000000000060448201526064015b60405180910390fd5b506000908152600560208181526040928390208351610100810185528154815260018201549281019290925260028101546001600160a01b039081169483019490945260038101549093166060820152600483015460808201529082015460a0820152600682015460c082015260079091015460ff16151560e082015290565b6106cb611b1c565b8160025481111580156106de5750600081115b6106fa5760405162461bcd60e51b815260040161063a90611f43565b6000838152600460208181526040928390208351610100810185528154815260018201546001600160a01b03169281019290925260028101549382019390935260038301546060820152908201805491929160808401919061075b90611f71565b80601f016020809104026020016040519081016040528092919081815260200182805461078790611f71565b80156107d45780601f106107a9576101008083540402835291602001916107d4565b820191906000526020600020905b8154815290600101906020018083116107b757829003601f168201915b505050505081526020016005820180546107ed90611f71565b80601f016020809104026020016040519081016040528092919081815260200182805461081990611f71565b80156108665780601f1061083b57610100808354040283529160200191610866565b820191906000526020600020905b81548152906001019060200180831161084957829003601f168201915b5050509183525050600682015460ff161515602082015260079091015460409091015291505b50919050565b6001600160a01b0381166000908152600660209081526040918290208054835181840281018401909452808452606093928301828280156108f257602002820191906000526020600020905b8154815260200190600101908083116108de575b50505050509050919050565b3360009081526008602052604090205460ff161561095e5760405162461bcd60e51b815260206004820152601760248201527f5573657220616c72656164792072656769737465726564000000000000000000604482015260640161063a565b60405167383937b9bab6b2b960c11b6020820152602801604051602081830303815290604052805190602001208160405160200161099c9190611fa5565b604051602081830303815290604052805190602001201480610a0f57506040516731b7b739bab6b2b960c11b602082015260280160405160208183030381529060405280519060200120816040516020016109f79190611fa5565b60405160208183030381529060405280519060200120145b610a4f5760405162461bcd60e51b8152602060048201526011602482015270496e76616c69642075736572207479706560781b604482015260640161063a565b336000908152600860209081526040808320805460ff1916600117905560099091529020610a7d8282612010565b50336001600160a01b03167f48cac28ad4dc618e15f4c2dd5e97751182f166de97b25618318b2112aa951a2f82604051610ab79190611ea6565b60405180910390a250565b610aca611a73565b610ad46000611aa0565b565b6060600060015b6002548111610b205760008181526004602052604090206006015460ff1615610b0e5781610b0a816120e6565b9250505b80610b18816120e6565b915050610add565b5060008167ffffffffffffffff811115610b3c57610b3c611ced565b604051908082528060200260200182016040528015610b7557816020015b610b62611b1c565b815260200190600190039081610b5a5790505b509050600060015b6002548111610d6f5760008181526004602052604090206006015460ff1615610d5d576000818152600460208181526040928390208351610100810185528154815260018201546001600160a01b031692810192909252600281015493820193909352600383015460608201529082018054919291608084019190610c0190611f71565b80601f0160208091040260200160405190810160405280929190818152602001828054610c2d90611f71565b8015610c7a5780601f10610c4f57610100808354040283529160200191610c7a565b820191906000526020600020905b815481529060010190602001808311610c5d57829003601f168201915b50505050508152602001600582018054610c9390611f71565b80601f0160208091040260200160405190810160405280929190818152602001828054610cbf90611f71565b8015610d0c5780601f10610ce157610100808354040283529160200191610d0c565b820191906000526020600020905b815481529060010190602001808311610cef57829003601f168201915b5050509183525050600682015460ff16151560208201526007909101546040909101528351849084908110610d4357610d436120ff565b60200260200101819052508180610d59906120e6565b9250505b80610d67816120e6565b915050610b7d565b50909392505050565b3360009081526008602052604090205460ff16610da75760405162461bcd60e51b815260040161063a90612115565b610daf611af2565b60405167383937b9bab6b2b960c11b602082015260280160408051601f19818403018152828252805160209182012033600090815260098352929092209192610df9929101612142565b6040516020818303038152906040528051906020012014610e5c5760405162461bcd60e51b815260206004820181905260248201527f4f6e6c792070726f73756d6572732063616e20637265617465206f6666657273604482015260640161063a565b60008411610eb85760405162461bcd60e51b8152602060048201526024808201527f456e6572677920616d6f756e74206d75737420626520677265617465722074686044820152630616e20360e41b606482015260840161063a565b60008311610f085760405162461bcd60e51b815260206004820152601c60248201527f5072696365206d7573742062652067726561746572207468616e203000000000604482015260640161063a565b60028054906000610f18836120e6565b90915550506002805460408051610100810182528281523360208083019182528284018a8152606084018a8152608085018a815260a086018a9052600160c087018190524260e088015260008981526004958690529790972086518155945196850180546001600160a01b0319166001600160a01b03909816979097179096559051968301969096559451600382015591519293909290820190610fbc9082612010565b5060a08201516005820190610fd19082612010565b5060c08201516006828101805460ff19169215159290921790915560e09092015160079091015533600081815260209283526040808220805460018101825590835293909120909201839055905182907febe4ebb6a404e3d9e9e522c58a44c4a08464c7d3a93611e6e53bbd421b60dd6090611052908990899089906121b8565b60405180910390a3506110656001600055565b50505050565b6009602052600090815260409020805461108490611f71565b80601f01602080910402602001604051908101604052809291908181526020018280546110b090611f71565b80156110fd5780601f106110d2576101008083540402835291602001916110fd565b820191906000526020600020905b8154815290600101906020018083116110e057829003601f168201915b505050505081565b60046020819052600091825260409091208054600182015460028301546003840154948401805493956001600160a01b0390931694919361114590611f71565b80601f016020809104026020016040519081016040528092919081815260200182805461117190611f71565b80156111be5780601f10611193576101008083540402835291602001916111be565b820191906000526020600020905b8154815290600101906020018083116111a157829003601f168201915b5050505050908060050180546111d390611f71565b80601f01602080910402602001604051908101604052809291908181526020018280546111ff90611f71565b801561124c5780601f106112215761010080835404028352916020019161124c565b820191906000526020600020905b81548152906001019060200180831161122f57829003601f168201915b505050506006830154600790930154919260ff1691905088565b6001600160a01b038116600090815260096020526040902080546060919061128d90611f71565b80601f01602080910402602001604051908101604052809291908181526020018280546112b990611f71565b80156108f25780601f106112db576101008083540402835291602001916108f2565b820191906000526020600020905b8154815290600101906020018083116112e95750939695505050505050565b6007602052816000526040600020818154811061132457600080fd5b90600052602060002001600091509150505481565b3360009081526008602052604090205460ff166113685760405162461bcd60e51b815260040161063a90612115565b80600254811115801561137b5750600081115b6113975760405162461bcd60e51b815260040161063a90611f43565b61139f611af2565b6000828152600460205260409020600681015460ff166113f75760405162461bcd60e51b81526020600482015260136024820152724f66666572206973206e6f742061637469766560681b604482015260640161063a565b6001810154336001600160a01b03909116036114555760405162461bcd60e51b815260206004820152601a60248201527f43616e6e6f742062757920796f7572206f776e20656e65726779000000000000604482015260640161063a565b600060648260030154836002015461146d91906121e0565b61147791906121fd565b9050803410156114c05760405162461bcd60e51b8152602060048201526014602482015273125b9cdd59999a58da595b9d081c185e5b595b9d60621b604482015260640161063a565b60068201805460ff19169055600380549060006114dc836120e6565b919050555060006003549050604051806101000160405280828152602001868152602001336001600160a01b031681526020018460010160009054906101000a90046001600160a01b03166001600160a01b03168152602001846002015481526020018381526020014281526020016001151581525060056000838152602001908152602001600020600082015181600001556020820151816001015560408201518160020160006101000a8154816001600160a01b0302191690836001600160a01b0316021790555060608201518160030160006101000a8154816001600160a01b0302191690836001600160a01b031602179055506080820151816004015560a0820151816005015560c0820151816006015560e08201518160070160006101000a81548160ff02191690831515021790555090505060076000336001600160a01b03166001600160a01b03168152602001908152602001600020819080600181540180825580915050600190039060005260206000200160009091909190915055600760008460010160009054906101000a90046001600160a01b03166001600160a01b03166001600160a01b031681526020019081526020016000208190806001815401808255809150506001900390600052602060002001600090919091909150558260010160009054906101000a90046001600160a01b03166001600160a01b03166108fc839081150290604051600060405180830381858888f19350505050158015611713573d6000803e3d6000fd5b508134111561175457336108fc61172a843461221f565b6040518115909202916000818181858888f19350505050158015611752573d6000803e3d6000fd5b505b60018301546002840154604080516001600160a01b039093168352602083019190915281018390523390869083907f046f56e2bfd65c56681e96c7aed173488771d4444226e41d7eab73370123cf059060600160405180910390a45050506117bc6001600055565b5050565b6006602052816000526040600020818154811061132457600080fd5b6117e4611a73565b47806118295760405162461bcd60e51b81526020600482015260146024820152734e6f2066756e647320746f20776974686472617760601b604482015260640161063a565b6001546040516001600160a01b039091169082156108fc029083906000818181858888f193505050501580156117bc573d6000803e3d6000fd5b3360009081526008602052604090205460ff166118925760405162461bcd60e51b815260040161063a90612115565b8060025481111580156118a55750600081115b6118c15760405162461bcd60e51b815260040161063a90611f43565b6118c9611af2565b600082815260046020526040902060018101546001600160a01b031633146119335760405162461bcd60e51b815260206004820152601c60248201527f4f6e6c792073656c6c65722063616e2063616e63656c206f6666657200000000604482015260640161063a565b600681015460ff166119875760405162461bcd60e51b815260206004820152601960248201527f4f6666657220697320616c726561647920696e61637469766500000000000000604482015260640161063a565b60068101805460ff19169055604051339084907f1f51377b3e685a0e2419f9bb4ba7c07ec54936353ba3d0fb3c6538dab676622290600090a3506117bc6001600055565b6001600160a01b0381166000908152600760209081526040918290208054835181840281018401909452808452606093928301828280156108f257602002820191906000526020600020908154815260200190600101908083116108de5750505050509050919050565b611a3d611a73565b6001600160a01b038116611a6757604051631e4fbdf760e01b81526000600482015260240161063a565b611a7081611aa0565b50565b6001546001600160a01b03163314610ad45760405163118cdaa760e01b815233600482015260240161063a565b600180546001600160a01b038381166001600160a01b0319831681179093556040519116919082907f8be0079c531659141344cd1fd0a4f28419497f9722a3daafe3b4186f6b6457e090600090a35050565b600260005403611b1557604051633ee5aeb560e01b815260040160405180910390fd5b6002600055565b6040518061010001604052806000815260200160006001600160a01b0316815260200160008152602001600081526020016060815260200160608152602001600015158152602001600081525090565b80356001600160a01b0381168114611b8357600080fd5b919050565b600060208284031215611b9a57600080fd5b611ba382611b6c565b9392505050565b600060208284031215611bbc57600080fd5b5035919050565b60005b83811015611bde578181015183820152602001611bc6565b50506000910152565b60008151808452611bff816020860160208601611bc3565b601f01601f19169290920160200192915050565b60006101008251845260018060a01b03602084015116602085015260408301516040850152606083015160608501526080830151816080860152611c5982860182611be7565b91505060a083015184820360a0860152611c738282611be7565b91505060c0830151151560c085015260e083015160e08501528091505092915050565b602081526000611ba36020830184611c13565b6020808252825182820181905260009190848201906040850190845b81811015611ce157835183529284019291840191600101611cc5565b50909695505050505050565b634e487b7160e01b600052604160045260246000fd5b600082601f830112611d1457600080fd5b813567ffffffffffffffff80821115611d2f57611d2f611ced565b604051601f8301601f19908116603f01168101908282118183101715611d5757611d57611ced565b81604052838152866020858801011115611d7057600080fd5b836020870160208301376000602085830101528094505050505092915050565b600060208284031215611da257600080fd5b813567ffffffffffffffff811115611db957600080fd5b611dc584828501611d03565b949350505050565b6000602080830181845280855180835260408601915060408160051b870101925083870160005b82811015611e2257603f19888603018452611e10858351611c13565b94509285019290850190600101611df4565b5092979650505050505050565b60008060008060808587031215611e4557600080fd5b8435935060208501359250604085013567ffffffffffffffff80821115611e6b57600080fd5b611e7788838901611d03565b93506060870135915080821115611e8d57600080fd5b50611e9a87828801611d03565b91505092959194509250565b602081526000611ba36020830184611be7565b60006101008a835260018060a01b038a166020840152886040840152876060840152806080840152611eed81840188611be7565b905082810360a0840152611f018187611be7565b94151560c0840152505060e001529695505050505050565b60008060408385031215611f2c57600080fd5b611f3583611b6c565b946020939093013593505050565b60208082526014908201527313d999995c88191bd95cc81b9bdd08195e1a5cdd60621b604082015260600190565b600181811c90821680611f8557607f821691505b60208210810361088c57634e487b7160e01b600052602260045260246000fd5b60008251611fb7818460208701611bc3565b9190910192915050565b601f82111561200b57600081815260208120601f850160051c81016020861015611fe85750805b601f850160051c820191505b8181101561200757828155600101611ff4565b5050505b505050565b815167ffffffffffffffff81111561202a5761202a611ced565b61203e816120388454611f71565b84611fc1565b602080601f831160018114612073576000841561205b5750858301515b600019600386901b1c1916600185901b178555612007565b600085815260208120601f198616915b828110156120a257888601518255948401946001909101908401612083565b50858210156120c05787850151600019600388901b60f8161c191681555b5050505050600190811b01905550565b634e487b7160e01b600052601160045260246000fd5b6000600182016120f8576120f86120d0565b5060010190565b634e487b7160e01b600052603260045260246000fd5b602080825260139082015272155cd95c881b9bdd081c9959da5cdd195c9959606a1b604082015260600190565b600080835461215081611f71565b60018281168015612168576001811461217d576121ac565b60ff19841687528215158302870194506121ac565b8760005260208060002060005b858110156121a35781548a82015290840190820161218a565b50505082870194505b50929695505050505050565b8381528260208201526060604082015260006121d76060830184611be7565b95945050505050565b80820281158282048414176121f7576121f76120d0565b92915050565b60008261221a57634e487b7160e01b600052601260045260246000fd5b500490565b818103818111156121f7576121f76120d056fea26469706673582212200e19a042f2a9b2a115fa35fa933a6009e60d1ab4c498269a84b087285a9df60e64736f6c63430008140033",
  "linkReferences": {},
  "deployedLinkReferences": {}
}